{
  "contractName": "Kontractum",
  "abi": [
    {
      "anonymous": false,
      "inputs": [
        {
          "indexed": false,
          "internalType": "uint256",
          "name": "id",
          "type": "uint256"
        },
        {
          "indexed": false,
          "internalType": "string",
          "name": "fileHash",
          "type": "string"
        },
        {
          "indexed": false,
          "internalType": "string",
          "name": "owner",
          "type": "string"
        },
        {
          "indexed": false,
          "internalType": "string",
          "name": "beneficiary",
          "type": "string"
        }
      ],
      "name": "ContractCreated",
      "type": "event",
      "signature": "0x80a3870633d92a02f6d02d44d2a24a349868eda989ceaa9e1042851c32075acb"
    },
    {
      "constant": true,
      "inputs": [],
      "name": "contractCount",
      "outputs": [
        {
          "internalType": "uint256",
          "name": "",
          "type": "uint256"
        }
      ],
      "payable": false,
      "stateMutability": "view",
      "type": "function",
      "signature": "0x8736381a"
    },
    {
      "constant": true,
      "inputs": [
        {
          "internalType": "uint256",
          "name": "",
          "type": "uint256"
        }
      ],
      "name": "contracts",
      "outputs": [
        {
          "internalType": "uint256",
          "name": "id",
          "type": "uint256"
        },
        {
          "internalType": "string",
          "name": "fileHash",
          "type": "string"
        },
        {
          "internalType": "string",
          "name": "owner",
          "type": "string"
        },
        {
          "internalType": "string",
          "name": "beneficiary",
          "type": "string"
        }
      ],
      "payable": false,
      "stateMutability": "view",
      "type": "function",
      "signature": "0x474da79a"
    },
    {
      "constant": false,
      "inputs": [
        {
          "internalType": "string",
          "name": "_fileHash",
          "type": "string"
        },
        {
          "internalType": "string",
          "name": "_owner",
          "type": "string"
        },
        {
          "internalType": "string",
          "name": "_beneficiary",
          "type": "string"
        }
      ],
      "name": "createContract",
      "outputs": [],
      "payable": false,
      "stateMutability": "nonpayable",
      "type": "function",
      "signature": "0xde2143d8"
    }
  ],
  "bytecode": "0x60806040526000805534801561001457600080fd5b506108f9806100246000396000f3fe608060405234801561001057600080fd5b506004361061005e576000357c010000000000000000000000000000000000000000000000000000000090048063474da79a146100635780638736381a146101e9578063de2143d814610207575b600080fd5b61008f6004803603602081101561007957600080fd5b81019080803590602001909291905050506103f0565b60405180858152602001806020018060200180602001848103845287818151815260200191508051906020019080838360005b838110156100dd5780820151818401526020810190506100c2565b50505050905090810190601f16801561010a5780820380516001836020036101000a031916815260200191505b50848103835286818151815260200191508051906020019080838360005b83811015610143578082015181840152602081019050610128565b50505050905090810190601f1680156101705780820380516001836020036101000a031916815260200191505b50848103825285818151815260200191508051906020019080838360005b838110156101a957808201518184015260208101905061018e565b50505050905090810190601f1680156101d65780820380516001836020036101000a031916815260200191505b5097505050505050505060405180910390f35b6101f16105e8565b6040518082815260200191505060405180910390f35b6103ee6004803603606081101561021d57600080fd5b810190808035906020019064010000000081111561023a57600080fd5b82018360208201111561024c57600080fd5b8035906020019184600183028401116401000000008311171561026e57600080fd5b91908080601f016020809104026020016040519081016040528093929190818152602001838380828437600081840152601f19601f820116905080830192505050505050509192919290803590602001906401000000008111156102d157600080fd5b8201836020820111156102e357600080fd5b8035906020019184600183028401116401000000008311171561030557600080fd5b91908080601f016020809104026020016040519081016040528093929190818152602001838380828437600081840152601f19601f8201169050808301925050505050505091929192908035906020019064010000000081111561036857600080fd5b82018360208201111561037a57600080fd5b8035906020019184600183028401116401000000008311171561039c57600080fd5b91908080601f016020809104026020016040519081016040528093929190818152602001838380828437600081840152601f19601f8201169050808301925050505050505091929192905050506105ee565b005b6001602052806000526040600020600091509050806000015490806001018054600181600116156101000203166002900480601f0160208091040260200160405190810160405280929190818152602001828054600181600116156101000203166002900480156104a25780601f10610477576101008083540402835291602001916104a2565b820191906000526020600020905b81548152906001019060200180831161048557829003601f168201915b505050505090806002018054600181600116156101000203166002900480601f0160208091040260200160405190810160405280929190818152602001828054600181600116156101000203166002900480156105405780601f1061051557610100808354040283529160200191610540565b820191906000526020600020905b81548152906001019060200180831161052357829003601f168201915b505050505090806003018054600181600116156101000203166002900480601f0160208091040260200160405190810160405280929190818152602001828054600181600116156101000203166002900480156105de5780601f106105b3576101008083540402835291602001916105de565b820191906000526020600020905b8154815290600101906020018083116105c157829003601f168201915b5050505050905084565b60005481565b60008081548092919060010191905055506040518060800160405280600054815260200184815260200183815260200182815250600160008054815260200190815260200160002060008201518160000155602082015181600101908051906020019061065c92919061081f565b50604082015181600201908051906020019061067992919061081f565b50606082015181600301908051906020019061069692919061081f565b509050507f80a3870633d92a02f6d02d44d2a24a349868eda989ceaa9e1042851c32075acb60005484848460405180858152602001806020018060200180602001848103845287818151815260200191508051906020019080838360005b8381101561070f5780820151818401526020810190506106f4565b50505050905090810190601f16801561073c5780820380516001836020036101000a031916815260200191505b50848103835286818151815260200191508051906020019080838360005b8381101561077557808201518184015260208101905061075a565b50505050905090810190601f1680156107a25780820380516001836020036101000a031916815260200191505b50848103825285818151815260200191508051906020019080838360005b838110156107db5780820151818401526020810190506107c0565b50505050905090810190601f1680156108085780820380516001836020036101000a031916815260200191505b5097505050505050505060405180910390a1505050565b828054600181600116156101000203166002900490600052602060002090601f016020900481019282601f1061086057805160ff191683800117855561088e565b8280016001018555821561088e579182015b8281111561088d578251825591602001919060010190610872565b5b50905061089b919061089f565b5090565b6108c191905b808211156108bd5760008160009055506001016108a5565b5090565b9056fea265627a7a7231582046b28a269b4de14b07d57db9c16395ab76f16e232b01d365dcdd49d2266798cf64736f6c63430005110032",
  "source": "pragma solidity >=0.4.22 <0.9.0;\n\ncontract Kontractum {\n\tuint public contractCount = 0;\n\n\tstruct Contract{\n\t\tuint id;\n\t\tstring fileHash;\n    string owner;\n    string beneficiary;\n\t}\n\tmapping(uint => Contract) public contracts;\n\n  event ContractCreated(\n    uint id,\n    string fileHash,\n    string owner,\n    string beneficiary\n  );\n\n  function createContract(string memory _fileHash, string memory _owner, string memory _beneficiary)\n        public\n    {\n        contractCount++;\n        contracts[contractCount] = Contract(\n            contractCount,\n            _fileHash,\n            _owner,\n            _beneficiary\n        );\n        emit ContractCreated(\n            contractCount,\n            _fileHash,\n            _owner,\n            _beneficiary\n        );\n    }\n}",
  "sourcePath": "/Users/a0834766/Desktop/Proyectos/kontractum/contracts/Kontractum.sol",
  "compiler": {
    "name": "solc",
    "version": "0.5.17+commit.d19bba13.Emscripten.clang"
  },
  "schemaVersion": "3.0.1",
  "updatedAt": "2022-11-14T11:37:57.431Z",
  "devdoc": {
    "methods": {}
  },
  "userdoc": {
    "methods": {}
  }
}