{
  "contractName": "Kontractum",
  "abi": [
    {
      "inputs": [],
      "payable": false,
      "stateMutability": "nonpayable",
      "type": "constructor",
      "signature": "constructor"
    },
    {
      "anonymous": false,
      "inputs": [
        {
          "indexed": false,
          "internalType": "uint256",
          "name": "id",
          "type": "uint256"
        },
        {
          "indexed": false,
          "internalType": "string",
          "name": "title",
          "type": "string"
        }
      ],
      "name": "ContractCreated",
      "type": "event",
      "signature": "0x2e713f1a586e05cd751d02861ccaa0326206d8e6de06e1bdb528016cfa2e5d09"
    },
    {
      "constant": true,
      "inputs": [],
      "name": "contractCount",
      "outputs": [
        {
          "internalType": "uint256",
          "name": "",
          "type": "uint256"
        }
      ],
      "payable": false,
      "stateMutability": "view",
      "type": "function",
      "signature": "0x8736381a"
    },
    {
      "constant": true,
      "inputs": [
        {
          "internalType": "uint256",
          "name": "",
          "type": "uint256"
        }
      ],
      "name": "contracts",
      "outputs": [
        {
          "internalType": "uint256",
          "name": "id",
          "type": "uint256"
        },
        {
          "internalType": "string",
          "name": "title",
          "type": "string"
        }
      ],
      "payable": false,
      "stateMutability": "view",
      "type": "function",
      "signature": "0x474da79a"
    },
    {
      "constant": false,
      "inputs": [
        {
          "internalType": "string",
          "name": "_title",
          "type": "string"
        }
      ],
      "name": "createContract",
      "outputs": [],
      "payable": false,
      "stateMutability": "nonpayable",
      "type": "function",
      "signature": "0x18f80bb9"
    }
  ],
  "bytecode": "0x60806040526000805534801561001457600080fd5b506100626040518060400160405280601c81526020017f436865636b206f75742064617070756e69766572736974792e636f6d00000000815250610067640100000000026401000000009004565b61021b565b6000808154809291906001019190505550604051806040016040528060005481526020018281525060016000805481526020019081526020016000206000820151816000015560208201518160010190805190602001906100c9929190610176565b509050507f2e713f1a586e05cd751d02861ccaa0326206d8e6de06e1bdb528016cfa2e5d09600054826040518083815260200180602001828103825283818151815260200191508051906020019080838360005b8381101561013857808201518184015260208101905061011d565b50505050905090810190601f1680156101655780820380516001836020036101000a031916815260200191505b50935050505060405180910390a150565b828054600181600116156101000203166002900490600052602060002090601f016020900481019282601f106101b757805160ff19168380011785556101e5565b828001600101855582156101e5579182015b828111156101e45782518255916020019190600101906101c9565b5b5090506101f291906101f6565b5090565b61021891905b808211156102145760008160009055506001016101fc565b5090565b90565b6104958061022a6000396000f3fe608060405234801561001057600080fd5b506004361061005e576000357c01000000000000000000000000000000000000000000000000000000009004806318f80bb914610063578063474da79a1461011e5780638736381a146101cc575b600080fd5b61011c6004803603602081101561007957600080fd5b810190808035906020019064010000000081111561009657600080fd5b8201836020820111156100a857600080fd5b803590602001918460018302840111640100000000831117156100ca57600080fd5b91908080601f016020809104026020016040519081016040528093929190818152602001838380828437600081840152601f19601f8201169050808301925050505050505091929192905050506101ea565b005b61014a6004803603602081101561013457600080fd5b81019080803590602001909291905050506102f9565b6040518083815260200180602001828103825283818151815260200191508051906020019080838360005b83811015610190578082015181840152602081019050610175565b50505050905090810190601f1680156101bd5780820380516001836020036101000a031916815260200191505b50935050505060405180910390f35b6101d46103b5565b6040518082815260200191505060405180910390f35b60008081548092919060010191905055506040518060400160405280600054815260200182815250600160008054815260200190815260200160002060008201518160000155602082015181600101908051906020019061024c9291906103bb565b509050507f2e713f1a586e05cd751d02861ccaa0326206d8e6de06e1bdb528016cfa2e5d09600054826040518083815260200180602001828103825283818151815260200191508051906020019080838360005b838110156102bb5780820151818401526020810190506102a0565b50505050905090810190601f1680156102e85780820380516001836020036101000a031916815260200191505b50935050505060405180910390a150565b6001602052806000526040600020600091509050806000015490806001018054600181600116156101000203166002900480601f0160208091040260200160405190810160405280929190818152602001828054600181600116156101000203166002900480156103ab5780601f10610380576101008083540402835291602001916103ab565b820191906000526020600020905b81548152906001019060200180831161038e57829003601f168201915b5050505050905082565b60005481565b828054600181600116156101000203166002900490600052602060002090601f016020900481019282601f106103fc57805160ff191683800117855561042a565b8280016001018555821561042a579182015b8281111561042957825182559160200191906001019061040e565b5b509050610437919061043b565b5090565b61045d91905b80821115610459576000816000905550600101610441565b5090565b9056fea265627a7a7231582009a675ca3bc6dce26fe031e8995eba8eff5e96e4b6f582e004ad0cdd0dc2d9a864736f6c63430005110032",
  "source": "pragma solidity >=0.4.22 <0.9.0;\n\ncontract Kontractum {\n\tuint public contractCount = 0;\n\n\tstruct Contract{\n\t\tuint id;\n\t\tstring title;\n\t}\n\tmapping(uint => Contract) public contracts;\n\n  event ContractCreated(\n    uint id,\n    string title\n  );\n\n  constructor() public {\n    createContract(\"Check out dappuniversity.com\");\n  }\n\n  function createContract(string memory _title)\n        public\n    {\n        contractCount++;\n        contracts[contractCount] = Contract(\n            contractCount,\n            _title\n        );\n        emit ContractCreated(\n            contractCount,\n            _title\n        );\n    }\n}",
  "sourcePath": "/Users/a0834766/Desktop/Proyectos/kontractum/contracts/Kontractum.sol",
  "compiler": {
    "name": "solc",
    "version": "0.5.17+commit.d19bba13.Emscripten.clang"
  },
  "schemaVersion": "3.0.1",
  "updatedAt": "2022-09-06T07:31:16.531Z",
  "devdoc": {
    "methods": {}
  },
  "userdoc": {
    "methods": {}
  }
}