{
  "contractName": "Solidity",
  "abi": [
    {
      "constant": true,
      "inputs": [],
      "name": "taskCount",
      "outputs": [
        {
          "name": "",
          "type": "uint256"
        }
      ],
      "payable": false,
      "stateMutability": "view",
      "type": "function"
    }
  ],
  "bytecode": "0x608060405260008055348015601357600080fd5b506099806100226000396000f3fe608060405260043610603e5763ffffffff7c0100000000000000000000000000000000000000000000000000000000600035041663b6cb58a581146043575b600080fd5b348015604e57600080fd5b5060556067565b60408051918252519081900360200190f35b6000548156fea165627a7a72305820e75798b89dddc3b79de21b01ccb81e0e70ce23422b696493d24922f088d2770a0029",
  "source": "pragma solidity >=0.4.22 <0.9.0;\n\ncontract Solidity {\n\tuint public taskCount = 0;\n}\n\n",
  "sourcePath": "/Users/a0834766/Desktop/Proyectos/kontractum/contracts/Kontractum.sol",
  "compiler": {
    "name": "solc",
    "version": "0.5.0+commit.1d4f565a.Emscripten.clang"
  },
  "schemaVersion": "3.0.1",
  "updatedAt": "2022-08-25T11:23:29.095Z",
  "devdoc": {
    "methods": {}
  },
  "userdoc": {
    "methods": {}
  }
}